{
  "contractName": "EducationCertificates",
  "abi": [
    {
      "constant": true,
      "inputs": [
        {
          "name": "",
          "type": "address"
        },
        {
          "name": "",
          "type": "uint256"
        }
      ],
      "name": "studentCertificates",
      "outputs": [
        {
          "name": "studentName",
          "type": "string"
        },
        {
          "name": "courseName",
          "type": "string"
        },
        {
          "name": "issueDate",
          "type": "uint256"
        },
        {
          "name": "certificateHash",
          "type": "string"
        }
      ],
      "payable": false,
      "stateMutability": "view",
      "type": "function"
    },
    {
      "anonymous": false,
      "inputs": [
        {
          "indexed": true,
          "name": "studentAddress",
          "type": "address"
        },
        {
          "indexed": false,
          "name": "studentName",
          "type": "string"
        },
        {
          "indexed": false,
          "name": "courseName",
          "type": "string"
        },
        {
          "indexed": false,
          "name": "issueDate",
          "type": "uint256"
        }
      ],
      "name": "CertificateAdded",
      "type": "event"
    },
    {
      "constant": false,
      "inputs": [
        {
          "name": "_studentName",
          "type": "string"
        },
        {
          "name": "_courseName",
          "type": "string"
        },
        {
          "name": "_issueDate",
          "type": "uint256"
        },
        {
          "name": "_certificateHash",
          "type": "string"
        }
      ],
      "name": "addCertificate",
      "outputs": [],
      "payable": false,
      "stateMutability": "nonpayable",
      "type": "function"
    },
    {
      "constant": true,
      "inputs": [
        {
          "name": "studentAddress",
          "type": "address"
        }
      ],
      "name": "getCertificateCount",
      "outputs": [
        {
          "name": "",
          "type": "uint256"
        }
      ],
      "payable": false,
      "stateMutability": "view",
      "type": "function"
    },
    {
      "constant": true,
      "inputs": [
        {
          "name": "studentAddress",
          "type": "address"
        },
        {
          "name": "index",
          "type": "uint256"
        }
      ],
      "name": "viewCertificate",
      "outputs": [
        {
          "name": "",
          "type": "string"
        },
        {
          "name": "",
          "type": "string"
        },
        {
          "name": "",
          "type": "uint256"
        },
        {
          "name": "",
          "type": "string"
        }
      ],
      "payable": false,
      "stateMutability": "view",
      "type": "function"
    }
  ],
  "bytecode": "0x608060405234801561001057600080fd5b50610ed1806100206000396000f3fe60806040526004361061005c576000357c01000000000000000000000000000000000000000000000000000000009004806301f8117e14610061578063b1d5ccf814610214578063c3934f0e14610279578063f6c8d2511461042c575b600080fd5b34801561006d57600080fd5b506100ba6004803603604081101561008457600080fd5b81019080803573ffffffffffffffffffffffffffffffffffffffff1690602001909291908035906020019092919050505061062c565b60405180806020018060200185815260200180602001848103845288818151815260200191508051906020019080838360005b838110156101085780820151818401526020810190506100ed565b50505050905090810190601f1680156101355780820380516001836020036101000a031916815260200191505b50848103835287818151815260200191508051906020019080838360005b8381101561016e578082015181840152602081019050610153565b50505050905090810190601f16801561019b5780820380516001836020036101000a031916815260200191505b50848103825285818151815260200191508051906020019080838360005b838110156101d45780820151818401526020810190506101b9565b50505050905090810190601f1680156102015780820380516001836020036101000a031916815260200191505b5097505050505050505060405180910390f35b34801561022057600080fd5b506102636004803603602081101561023757600080fd5b81019080803573ffffffffffffffffffffffffffffffffffffffff169060200190929190505050610910565b6040518082815260200191505060405180910390f35b34801561028557600080fd5b506102d26004803603604081101561029c57600080fd5b81019080803573ffffffffffffffffffffffffffffffffffffffff1690602001909291908035906020019092919050505061095b565b60405180806020018060200185815260200180602001848103845288818151815260200191508051906020019080838360005b83811015610320578082015181840152602081019050610305565b50505050905090810190601f16801561034d5780820380516001836020036101000a031916815260200191505b50848103835287818151815260200191508051906020019080838360005b8381101561038657808201518184015260208101905061036b565b50505050905090810190601f1680156103b35780820380516001836020036101000a031916815260200191505b50848103825285818151815260200191508051906020019080838360005b838110156103ec5780820151818401526020810190506103d1565b50505050905090810190601f1680156104195780820380516001836020036101000a031916815260200191505b5097505050505050505060405180910390f35b34801561043857600080fd5b5061062a6004803603608081101561044f57600080fd5b810190808035906020019064010000000081111561046c57600080fd5b82018360208201111561047e57600080fd5b803590602001918460018302840111640100000000831117156104a057600080fd5b91908080601f016020809104026020016040519081016040528093929190818152602001838380828437600081840152601f19601f8201169050808301925050505050505091929192908035906020019064010000000081111561050357600080fd5b82018360208201111561051557600080fd5b8035906020019184600183028401116401000000008311171561053757600080fd5b91908080601f016020809104026020016040519081016040528093929190818152602001838380828437600081840152601f19601f82011690508083019250505050505050919291929080359060200190929190803590602001906401000000008111156105a457600080fd5b8201836020820111156105b657600080fd5b803590602001918460018302840111640100000000831117156105d857600080fd5b91908080601f016020809104026020016040519081016040528093929190818152602001838380828437600081840152601f19601f820116905080830192505050505050509192919290505050610b6f565b005b606080600060606000808773ffffffffffffffffffffffffffffffffffffffff1673ffffffffffffffffffffffffffffffffffffffff168152602001908152602001600020805490508510151561068257600080fd5b61068a610dd7565b6000808873ffffffffffffffffffffffffffffffffffffffff1673ffffffffffffffffffffffffffffffffffffffff168152602001908152602001600020868154811015156106d557fe5b906000526020600020906004020160806040519081016040529081600082018054600181600116156101000203166002900480601f0160208091040260200160405190810160405280929190818152602001828054600181600116156101000203166002900480156107885780601f1061075d57610100808354040283529160200191610788565b820191906000526020600020905b81548152906001019060200180831161076b57829003601f168201915b50505050508152602001600182018054600181600116156101000203166002900480601f01602080910402602001604051908101604052809291908181526020018280546001816001161561010002031660029004801561082a5780601f106107ff5761010080835404028352916020019161082a565b820191906000526020600020905b81548152906001019060200180831161080d57829003601f168201915b5050505050815260200160028201548152602001600382018054600181600116156101000203166002900480601f0160208091040260200160405190810160405280929190818152602001828054600181600116156101000203166002900480156108d65780601f106108ab576101008083540402835291602001916108d6565b820191906000526020600020905b8154815290600101906020018083116108b957829003601f168201915b5050505050815250509050806000015181602001518260400151836060015183935082925080905094509450945094505092959194509250565b60008060008373ffffffffffffffffffffffffffffffffffffffff1673ffffffffffffffffffffffffffffffffffffffff168152602001908152602001600020805490509050919050565b60006020528160005260406000208181548110151561097657fe5b906000526020600020906004020160009150915050806000018054600181600116156101000203166002900480601f016020809104026020016040519081016040528092919081815260200182805460018160011615610100020316600290048015610a235780601f106109f857610100808354040283529160200191610a23565b820191906000526020600020905b815481529060010190602001808311610a0657829003601f168201915b505050505090806001018054600181600116156101000203166002900480601f016020809104026020016040519081016040528092919081815260200182805460018160011615610100020316600290048015610ac15780601f10610a9657610100808354040283529160200191610ac1565b820191906000526020600020905b815481529060010190602001808311610aa457829003601f168201915b505050505090806002015490806003018054600181600116156101000203166002900480601f016020809104026020016040519081016040528092919081815260200182805460018160011615610100020316600290048015610b655780601f10610b3a57610100808354040283529160200191610b65565b820191906000526020600020905b815481529060010190602001808311610b4857829003601f168201915b5050505050905084565b60008451111515610b7f57600080fd5b60008351111515610b8f57600080fd5b600082111515610b9e57600080fd5b60008151111515610bae57600080fd5b610bb6610dd7565b6080604051908101604052808681526020018581526020018481526020018381525090506000803373ffffffffffffffffffffffffffffffffffffffff1673ffffffffffffffffffffffffffffffffffffffff16815260200190815260200160002081908060018154018082558091505090600182039060005260206000209060040201600090919290919091506000820151816000019080519060200190610c60929190610e00565b506020820151816001019080519060200190610c7d929190610e00565b50604082015181600201556060820151816003019080519060200190610ca4929190610e00565b505050503373ffffffffffffffffffffffffffffffffffffffff167feadbdbdb356299289dd1f0214584ba3fde626873e88de5992db4aa5179cab472868686604051808060200180602001848152602001838103835286818151815260200191508051906020019080838360005b83811015610d2d578082015181840152602081019050610d12565b50505050905090810190601f168015610d5a5780820380516001836020036101000a031916815260200191505b50838103825285818151815260200191508051906020019080838360005b83811015610d93578082015181840152602081019050610d78565b50505050905090810190601f168015610dc05780820380516001836020036101000a031916815260200191505b509550505050505060405180910390a25050505050565b608060405190810160405280606081526020016060815260200160008152602001606081525090565b828054600181600116156101000203166002900490600052602060002090601f016020900481019282601f10610e4157805160ff1916838001178555610e6f565b82800160010185558215610e6f579182015b82811115610e6e578251825591602001919060010190610e53565b5b509050610e7c9190610e80565b5090565b610ea291905b80821115610e9e576000816000905550600101610e86565b5090565b9056fea165627a7a7230582039cbb5d0d7a164dd84c593b850852c359f61e38b02d3f118f65ad06b8bb3e8d00029",
  "source": "// SPDX-License-Identifier: MIT\r\npragma solidity >=0.4.22 <0.9.0;\r\n\r\ncontract EducationCertificates {\r\n    struct Certificate {\r\n        string studentName;\r\n        string courseName;\r\n        uint256 issueDate;\r\n        string certificateHash; // Belgeyi saklamak için bir IPFS veya benzeri link\r\n    }\r\n\r\n    mapping(address => Certificate[]) public studentCertificates;\r\n\r\n    event CertificateAdded(address indexed studentAddress, string studentName, string courseName, uint256 issueDate);\r\n\r\n    function addCertificate(string memory _studentName, string memory _courseName, uint256 _issueDate, string memory _certificateHash) public {\r\n        require(bytes(_studentName).length > 0);\r\n        require(bytes(_courseName).length > 0);\r\n        require(_issueDate > 0);\r\n        require(bytes(_certificateHash).length > 0);\r\n\r\n        Certificate memory newCertificate = Certificate(_studentName, _courseName, _issueDate, _certificateHash);\r\n        studentCertificates[msg.sender].push(newCertificate);\r\n\r\n        emit CertificateAdded(msg.sender, _studentName, _courseName, _issueDate);\r\n    }\r\n\r\n    function getCertificateCount(address studentAddress) public view returns (uint) {\r\n        return studentCertificates[studentAddress].length;\r\n    }\r\n\r\n    function viewCertificate(address studentAddress, uint index) public view returns (string memory, string memory, uint256, string memory) {\r\n        require(index < studentCertificates[studentAddress].length);\r\n        Certificate memory cert = studentCertificates[studentAddress][index];\r\n        return (cert.studentName, cert.courseName, cert.issueDate, cert.certificateHash);\r\n    }\r\n}\r\n",
  "sourcePath": "C:\\Users\\msi_r\\OneDrive\\Masaüstü\\OgrenciBelgeleri\\contracts\\EducationCertificates.sol",
  "compiler": {
    "name": "solc",
    "version": "0.5.1+commit.c8a2cb62.Emscripten.clang"
  },
  "schemaVersion": "3.4.16",
  "updatedAt": "2023-09-22T07:23:31.014Z",
  "networkType": "ethereum",
  "devdoc": {
    "methods": {}
  },
  "userdoc": {
    "methods": {}
  }
}